{
  "transactions": [
    {
      "hash": "0x054a340a7887d4112b6dc68d1ef1946ea917e366e7e3faf7a7f932f3275cb3e7",
      "transactionType": "CREATE",
      "contractName": "GoldaVault",
      "contractAddress": "0xbf8f03002e91daacc8e3597d650a4f1b2d21a39e",
      "function": null,
      "arguments": [
        "0x754704Bc059F8C67012fEd69BC8A327a5aafb603",
        "0x77c4a1cD22005b67Eb9CcEaE7E9577188d7Bca82"
      ],
      "transaction": {
        "from": "0x77c4a1cd22005b67eb9cceae7e9577188d7bca82",
        "gas": "0x1f0f13",
        "value": "0x0",
        "input": "0x60a06040523461042157611c8c6040813803918261001c81610425565b9384928339810103126104215761003e60206100378361044a565b920161044a565b6100486040610425565b916011835270476f6c6461205661756c7420536861726560781b60208401526100716040610425565b6005815264675553444360d81b602082015283519092906001600160401b03811161033257600354600181811c91168015610417575b602082101461031457601f81116103b4575b50602094601f8211600114610351579481929394955f92610346575b50508160011b915f199060031b1c1916176003555b82516001600160401b03811161033257600454600181811c91168015610328575b602082101461031457601f81116102b1575b506020601f821160011461024e57819293945f92610243575b50508160011b915f199060031b1c1916176004555b33156102305760058054336001600160a01b0319821681179092556040519391906001600160a01b03167f8be0079c531659141344cd1fd0a4f28419497f9722a3daafe3b4186f6b6457e05f80a360017f9b779b17422d0df92223018b32b4d1fa46e071723d6817e2486d003becc55f00556001600160a01b03908116608052600680546001600160a01b0319169290911691821790557f99d737e0adf2c449d71890b86772885ec7959b152ddb265f76325b6e68e105d35f80a261182d908161045f82396080518181816105b901528181610b5701528181610f7d015261101a0152f35b631e4fbdf760e01b5f525f60045260245ffd5b015190505f80610136565b601f1982169060045f52805f20915f5b81811061029957509583600195969710610281575b505050811b0160045561014b565b01515f1960f88460031b161c191690555f8080610273565b9192602060018192868b01518155019401920161025e565b60045f527f8a35acfbc15ff81a39ae7d344fd709f28e8600b4aa8c65c6b64bfe7fe36bd19b601f830160051c8101916020841061030a575b601f0160051c01905b8181106102ff575061011d565b5f81556001016102f2565b90915081906102e9565b634e487b7160e01b5f52602260045260245ffd5b90607f169061010b565b634e487b7160e01b5f52604160045260245ffd5b015190505f806100d5565b601f1982169560035f52805f20915f5b88811061039c57508360019596979810610384575b505050811b016003556100ea565b01515f1960f88460031b161c191690555f8080610376565b91926020600181928685015181550194019201610361565b60035f527fc2575a0e9e593c00f959f8c92f12db2869c3395a3b0502d05e2516446f71f85b601f830160051c8101916020841061040d575b601f0160051c01905b81811061040257506100b9565b5f81556001016103f5565b90915081906103ec565b90607f16906100a7565b5f80fd5b6040519190601f01601f191682016001600160401b0381118382101761033257604052565b51906001600160a01b03821682036104215756fe6080604052600436101561001a575b3615610018575f80fd5b005b5f3560e01c806301e2ae551461143c57806302709f671461141f57806306fdde0314611364578063095ea7b3146112e257806318160ddd146112c557806323b872dd146111e657806326add7fc146111c9578063313ce567146111ae578063368ddfe714611133578063379607f514610fac5780633e413bee14610f685780634d14a0ee146102c7578063570ca73514610f405780635cc0707614610ee45780635f39f89214610ea757806370a0823114610e70578063715018a614610e15578063745400c914610b9a5780638671d23b14610b155780638726972914610af35780638da5cb5b14610acb57806395d89b41146109c3578063a9059cbb14610992578063b3ab15fb1461092c578063b61d27f61461072a578063b6b55f2514610570578063b808e34314610553578063ca1dd22e146104d6578063da3e33971461031c578063dd62ed3e146102cc578063e1e158a5146102c7578063ecb7cb1b146102135763f2fde38b0361000e573461020f57602036600319011261020f576101a2611568565b6101aa611689565b6001600160a01b031680156101fc57600580546001600160a01b0319811683179091556001600160a01b03167f8be0079c531659141344cd1fd0a4f28419497f9722a3daafe3b4186f6b6457e05f80a3005b631e4fbdf760e01b5f525f60045260245ffd5b5f80fd5b3461020f57602036600319011261020f576001600160a01b03610234611568565b165f52600b60205260405f20604051806020835491828152019081935f5260205f20905f5b8181106102b1575050508161026f9103826115f1565b604051918291602083019060208452518091526040830191905f5b818110610298575050500390f35b825184528594506020938401939092019160010161028a565b8254845260209093019260019283019201610259565b611594565b3461020f57604036600319011261020f576102e5611568565b6102ed61157e565b6001600160a01b039182165f908152600160209081526040808320949093168252928352819020549051908152f35b3461020f57606036600319011261020f57610335611568565b61033d61157e565b6044359060018060a01b0360065416331415806104c1575b6104b2576001600160a01b03165f8181526009602052604090205490919060ff16156104a35760405163095ea7b360e01b5f52826004528160245260205f60448180885af19060015f5114821615610494575b604052156103b257005b60405163095ea7b360e01b5f52826004525f60245260205f60448180885af19060015f511482161561047c575b6040521561045e576040519163095ea7b360e01b5f5260045260245260205f60448180865af19060015f511482161561043d575b6040521561041d57005b635274afe760e01b5f9081526001600160a01b0391909116600452602490fd5b90600181151661045557823b15153d15161690610413565b503d5f823e3d90fd5b635274afe760e01b5f9081526001600160a01b038416600452602490fd5b90600181151661045557843b15153d151616906103df565b90843b15153d151616906103a8565b6348cbf26d60e01b5f5260045ffd5b631f0853c160e21b5f5260045ffd5b506005546001600160a01b0316331415610355565b3461020f57604036600319011261020f576104ef611568565b7fa15b89ddfd4f8f39b42c00d0e35440aa574da8d20d9e1d886e42edf16ce9ad4c602061051a611535565b92610523611689565b6001600160a01b03165f8181526009835260409020805460ff191660ff86151516179055926040519015158152a2005b3461020f575f36600319011261020f576020600854604051908152f35b3461020f57602036600319011261020f5760043561058c611747565b620f4240811061071b57600254600754908181158015610713575b156106fb57505081905b81156106ec577f00000000000000000000000000000000000000000000000000000000000000006040516323b872dd60e01b5f5233600452306024528460445260205f60648180865af19060015f51148216156106d4575b6040525f6060521561041d5750826106209161167c565b60075533156106c1576020916106388260025461167c565b600255335f525f835260405f208281540190556040518281525f7fddf252ad1be2c89b69c2b068fc378daa952ba7f163c4a11628f55a4df523b3ef853393a360405190815281838201527f90890809c654f11d6e72a28fa60149770a0d11ec6c92319d6ceb2bb0a4ea1a1560403392a260015f805160206117d883398151915255604051908152f35b63ec442f0560e01b5f525f60045260245ffd5b90600181151661045557823b15153d15161690610609565b639811e0c760e01b5f5260045ffd5b61070861070d9285611613565b611626565b906105b1565b5080156105a7565b6325bb239560e21b5f5260045ffd5b3461020f57606036600319011261020f57610743611568565b6024356044359167ffffffffffffffff831161020f573660238401121561020f5782600401359167ffffffffffffffff831161020f576024840193602484369201011161020f576006546001600160a01b031633141580610917575b6104b2576107ab611747565b6001600160a01b0382165f8181526009602052604090205490929060ff16156104a3575f809160405186888237848188810185815203925af1923d1561090f573d9367ffffffffffffffff85116108fb5760405194610814601f8201601f1916602001876115f1565b85523d5f602087013e5b156108d557600481106108a55760041161020f576108a1937fe08f8925f45c337d514b07af2526e14449bcf90afd92efd8b611f17ebf419db091604091356001600160e01b0319165b82519182526001600160e01b0319166020820152a260015f805160206117d883398151915255604051918291602083526020830190611544565b0390f35b506108a1935060407fe08f8925f45c337d514b07af2526e14449bcf90afd92efd8b611f17ebf419db0915f610867565b60405163a5fa8d2b60e01b815260206004820152806108f76024820187611544565b0390fd5b634e487b7160e01b5f52604160045260245ffd5b60609361081e565b506005546001600160a01b031633141561079f565b3461020f57602036600319011261020f57610945611568565b61094d611689565b600680546001600160a01b0319166001600160a01b039290921691821790557f99d737e0adf2c449d71890b86772885ec7959b152ddb265f76325b6e68e105d35f80a2005b3461020f57604036600319011261020f576109b86109ae611568565b60243590336116b0565b602060405160018152f35b3461020f575f36600319011261020f576040515f6004548060011c90600181168015610ac1575b602083108114610aad57828552908115610a895750600114610a2b575b6108a183610a17818503826115f1565b604051918291602083526020830190611544565b91905060045f527f8a35acfbc15ff81a39ae7d344fd709f28e8600b4aa8c65c6b64bfe7fe36bd19b915f905b808210610a6f57509091508101602001610a17610a07565b919260018160209254838588010152019101909291610a57565b60ff191660208086019190915291151560051b84019091019150610a179050610a07565b634e487b7160e01b5f52602260045260245ffd5b91607f16916109ea565b3461020f575f36600319011261020f576005546040516001600160a01b039091168152602090f35b3461020f575f36600319011261020f576020610b0d611644565b604051908152f35b3461020f57606036600319011261020f57610b2e611568565b604435906001600160a01b038216820361020f57610b4a611689565b6001600160a01b038181167f000000000000000000000000000000000000000000000000000000000000000090911614610b8b57610018916024359161177f565b630236407360e31b5f5260045ffd5b3461020f57602036600319011261020f57600435610bb6611747565b80158015610e01575b610df257600254610bd7600754916107088385611613565b903315610ddf57335f525f6020528260405f2054818110610dc657335f525f6020520360405f205582600254036002555f6040518481527fddf252ad1be2c89b69c2b068fc378daa952ba7f163c4a11628f55a4df523b3ef60203392a3818103908111610d9f576007556040516060810181811067ffffffffffffffff8211176108fb5760405233815260208101906001600160801b038316825260408101905f8252600a54600160401b8110156108fb57806001610c999201600a556115b1565b919091610db3575181546001600160a01b0319166001600160a01b0391909116178155915160019092018054915170ffffffffffffffffffffffffffffffffff199092166001600160801b03939093169290921790151560801b60ff60801b16179055600a545f19810191908211610d9f57335f52600b60205260405f2092835491600160401b8310156108fb5760018301808655831015610d8b578380936020965f52865f200155604051918252848201527f7a64d79878509820925daa6339976afdd4e1c50dc32bfae6820dd5792bd306a760403392a360015f805160206117d883398151915255604051908152f35b634e487b7160e01b5f52603260045260245ffd5b634e487b7160e01b5f52601160045260245ffd5b634e487b7160e01b5f525f60045260245ffd5b63391434e360e21b5f523360045260245260445260645ffd5b634b637e8f60e11b5f525f60045260245ffd5b633999656760e01b5f5260045ffd5b50335f525f6020528060405f205410610bbf565b3461020f575f36600319011261020f57610e2d611689565b600580546001600160a01b031981169091555f906001600160a01b03167f8be0079c531659141344cd1fd0a4f28419497f9722a3daafe3b4186f6b6457e08280a3005b3461020f57602036600319011261020f576001600160a01b03610e91611568565b165f525f602052602060405f2054604051908152f35b3461020f57602036600319011261020f576001600160a01b03610ec8611568565b165f526009602052602060ff60405f2054166040519015158152f35b3461020f57602036600319011261020f57600435600a5481101561020f57610f0d6060916115b1565b5060ff6001808060a01b038354169201546040519283526001600160801b038116602084015260801c1615156040820152f35b3461020f575f36600319011261020f576006546040516001600160a01b039091168152602090f35b3461020f575f36600319011261020f576040517f00000000000000000000000000000000000000000000000000000000000000006001600160a01b03168152602090f35b3461020f57602036600319011261020f57600435610fc8611747565b610fd1816115b1565b5080549091906001600160a01b031633810361112457600183019283549060ff8260801c16611116576040516370a0823160e01b81523060048201526001600160801b038316957f00000000000000000000000000000000000000000000000000000000000000009390916020816024816001600160a01b0389165afa801561110b5788915f916110d6575b50106110c75760ff60801b1916600160801b1790557fd652eec1c58b4b6f74acf69b1c7bd8163c76712b2c9547f6f2d7b14a88bd7f45926020926110a291879161177f565b546040519485526001600160a01b031693a360015f805160206117d883398151915255005b6357155ae360e01b5f5260045ffd5b9150506020813d602011611103575b816110f2602093836115f1565b8101031261020f578790518961105d565b3d91506110e5565b6040513d5f823e3d90fd5b62560ff960e81b5f5260045ffd5b631956fdd160e11b5f5260045ffd5b3461020f57602036600319011261020f5760043560018060a01b036006541633141580611199575b6104b2576040817f4b82b8834f3f7b776bcb5a777f77ea7aabcd427c3fa20fba6fb6887d99b0a17e92600755426008558151908152426020820152a1005b506005546001600160a01b031633141561115b565b3461020f575f36600319011261020f57602060405160128152f35b3461020f575f36600319011261020f576020600754604051908152f35b3461020f57606036600319011261020f576111ff611568565b61120761157e565b6001600160a01b0382165f818152600160209081526040808320338452909152902054909260443592915f198110611245575b506109b893506116b0565b8381106112aa578415611297573315611284576109b8945f52600160205260405f2060018060a01b0333165f526020528360405f20910390558461123a565b634a1406b160e11b5f525f60045260245ffd5b63e602df0560e01b5f525f60045260245ffd5b8390637dc7a0d960e11b5f523360045260245260445260645ffd5b3461020f575f36600319011261020f576020600254604051908152f35b3461020f57604036600319011261020f576112fb611568565b602435903315611297576001600160a01b031690811561128457335f52600160205260405f20825f526020528060405f20556040519081527f8c5be1e5ebec7d5bd14f71427d1e84f3dd0314c0f7b2291e5b200ac8c7c3b92560203392a3602060405160018152f35b3461020f575f36600319011261020f576040515f6003548060011c90600181168015611415575b602083108114610aad57828552908115610a8957506001146113b7576108a183610a17818503826115f1565b91905060035f527fc2575a0e9e593c00f959f8c92f12db2869c3395a3b0502d05e2516446f71f85b915f905b8082106113fb57509091508101602001610a17610a07565b9192600181602092548385880101520191019092916113e3565b91607f169161138b565b3461020f575f36600319011261020f576020600a54604051908152f35b3461020f57604036600319011261020f5760043567ffffffffffffffff811161020f573660238201121561020f57806004013567ffffffffffffffff811161020f576024820191602436918360051b01011161020f5761149a611535565b6114a2611689565b801515905f5b8381106114b157005b6001906001600160a01b036114cf6114ca83888a6115cd565b6115dd565b165f5260096020526114f08360405f209060ff801983541691151516179055565b818060a01b036115046114ca83888a6115cd565b167fa15b89ddfd4f8f39b42c00d0e35440aa574da8d20d9e1d886e42edf16ce9ad4c6020604051878152a2016114a8565b60243590811515820361020f57565b805180835260209291819084018484015e5f828201840152601f01601f1916010190565b600435906001600160a01b038216820361020f57565b602435906001600160a01b038216820361020f57565b3461020f575f36600319011261020f576020604051620f42408152f35b600a54811015610d8b57600a5f5260205f209060011b01905f90565b9190811015610d8b5760051b0190565b356001600160a01b038116810361020f5790565b90601f8019910116810190811067ffffffffffffffff8211176108fb57604052565b81810292918115918404141715610d9f57565b8115611630570490565b634e487b7160e01b5f52601260045260245ffd5b60025480156116745760075490620f4240820291808304620f42401490151715610d9f5761167191611626565b90565b50620f424090565b91908201809211610d9f57565b6005546001600160a01b0316330361169d57565b63118cdaa760e01b5f523360045260245ffd5b6001600160a01b0316908115610ddf576001600160a01b03169182156106c157815f525f60205260405f205481811061172e57817fddf252ad1be2c89b69c2b068fc378daa952ba7f163c4a11628f55a4df523b3ef92602092855f525f84520360405f2055845f525f825260405f20818154019055604051908152a3565b8263391434e360e21b5f5260045260245260445260645ffd5b60025f805160206117d883398151915254146117705760025f805160206117d883398151915255565b633ee5aeb560e01b5f5260045ffd5b916040519163a9059cbb60e01b5f5260018060a01b031660045260245260205f60448180865af19060015f51148216156117bf575b6040521561041d5750565b90600181151661045557823b15153d151616906117b456fe9b779b17422d0df92223018b32b4d1fa46e071723d6817e2486d003becc55f00a2646970667358221220093b21667165fb98f2efc316fab134318bbc9ed9a406c7c03c0052d6a4a2598f64736f6c634300081a0033000000000000000000000000754704bc059f8c67012fed69bc8a327a5aafb60300000000000000000000000077c4a1cd22005b67eb9cceae7e9577188d7bca82",
        "nonce": "0x0",
        "chainId": "0x279f"
      },
      "additionalContracts": [],
      "isFixedGasLimit": false
    },
    {
      "hash": "0x3b4c202a6bc7f2751e2dfd3f3a0283b2d5cbc7bd380142c70d2bcfee1a14fc86",
      "transactionType": "CALL",
      "contractName": "GoldaVault",
      "contractAddress": "0xbf8f03002e91daacc8e3597d650a4f1b2d21a39e",
      "function": "setAllowedTargets(address[],bool)",
      "arguments": [
        "[0x026F252016A7C47CDEf1F05a3Fc9E20C92a49C37, 0x3c6B2E0b7421254846C53c118e24c65d59eAe75e, 0x1E4D67c666c2Ccf27A0aF980fE6c8e0f05aC8949, 0x289F801765B99B5E6263853859fE302dbecaB6d6, 0x234d354b39a4Ca1274CB04972D3A9e03f1d8C4FF, 0xd505ccE10571C1d07dd40D2D9001BEf22CDF0D71, 0x091298D908a216CfcA30729dB2B194Fe5f1d16be, 0x8f47D9D9d5A8202a5a37c4E41fbDd3146D88A579, 0x88927d35e37286805f343dC449b750F431E70a20, 0x000000000022D473030F116dDEE9F6B43aC78BA3]",
        "true"
      ],
      "transaction": {
        "from": "0x77c4a1cd22005b67eb9cceae7e9577188d7bca82",
        "to": "0xbf8f03002e91daacc8e3597d650a4f1b2d21a39e",
        "gas": "0x9ecb",
        "value": "0x0",
        "input": "0x01e2ae5500000000000000000000000000000000000000000000000000000000000000400000000000000000000000000000000000000000000000000000000000000001000000000000000000000000000000000000000000000000000000000000000a000000000000000000000000026f252016a7c47cdef1f05a3fc9e20c92a49c370000000000000000000000003c6b2e0b7421254846c53c118e24c65d59eae75e0000000000000000000000001e4d67c666c2ccf27a0af980fe6c8e0f05ac8949000000000000000000000000289f801765b99b5e6263853859fe302dbecab6d6000000000000000000000000234d354b39a4ca1274cb04972d3a9e03f1d8c4ff000000000000000000000000d505cce10571c1d07dd40d2d9001bef22cdf0d71000000000000000000000000091298d908a216cfca30729db2b194fe5f1d16be0000000000000000000000008f47d9d9d5a8202a5a37c4e41fbdd3146d88a57900000000000000000000000088927d35e37286805f343dc449b750f431e70a20000000000000000000000000000000000022d473030f116ddee9f6b43ac78ba3",
        "nonce": "0x1",
        "chainId": "0x279f"
      },
      "additionalContracts": [],
      "isFixedGasLimit": false
    }
  ],
  "receipts": [
    {
      "status": "0x1",
      "cumulativeGasUsed": "0x1f0f13",
      "logs": [
        {
          "address": "0xbf8f03002e91daacc8e3597d650a4f1b2d21a39e",
          "topics": [
            "0x8be0079c531659141344cd1fd0a4f28419497f9722a3daafe3b4186f6b6457e0",
            "0x0000000000000000000000000000000000000000000000000000000000000000",
            "0x00000000000000000000000077c4a1cd22005b67eb9cceae7e9577188d7bca82"
          ],
          "data": "0x",
          "blockHash": "0x1b96ed54bcd982b68bb5c086c18c58a851093cedc5c257d04d75e5098e69ad5f",
          "blockNumber": "0x1a517a8",
          "blockTimestamp": "0x69ebe80f",
          "transactionHash": "0x054a340a7887d4112b6dc68d1ef1946ea917e366e7e3faf7a7f932f3275cb3e7",
          "transactionIndex": "0x1",
          "logIndex": "0x1",
          "removed": false
        },
        {
          "address": "0xbf8f03002e91daacc8e3597d650a4f1b2d21a39e",
          "topics": [
            "0x99d737e0adf2c449d71890b86772885ec7959b152ddb265f76325b6e68e105d3",
            "0x00000000000000000000000077c4a1cd22005b67eb9cceae7e9577188d7bca82"
          ],
          "data": "0x",
          "blockHash": "0x1b96ed54bcd982b68bb5c086c18c58a851093cedc5c257d04d75e5098e69ad5f",
          "blockNumber": "0x1a517a8",
          "blockTimestamp": "0x69ebe80f",
          "transactionHash": "0x054a340a7887d4112b6dc68d1ef1946ea917e366e7e3faf7a7f932f3275cb3e7",
          "transactionIndex": "0x1",
          "logIndex": "0x2",
          "removed": false
        }
      ],
      "logsBloom": "0x00000000000000000000000000000000000000001000000000800000000000000000000000000000000000000000000000000000000800000000000000000000000000000000000000000000000000000081000000000000000000000000010000000000020000000000080000000800000000000000000000000000000000400000010000000000000040000000000000000000000000000000000000000000000000000000000000000000000000000000000000000000000000000000000000000000000000000000000000000000000000000000000000000000000020000000000000000000002000000000000000000000000000000200000000000000",
      "type": "0x2",
      "transactionHash": "0x054a340a7887d4112b6dc68d1ef1946ea917e366e7e3faf7a7f932f3275cb3e7",
      "transactionIndex": "0x1",
      "blockHash": "0x1b96ed54bcd982b68bb5c086c18c58a851093cedc5c257d04d75e5098e69ad5f",
      "blockNumber": "0x1a517a8",
      "gasUsed": "0x1f0f13",
      "effectiveGasPrice": "0x1c7f9bc7ff",
      "from": "0x77c4a1cd22005b67eb9cceae7e9577188d7bca82",
      "to": null,
      "contractAddress": "0xbf8f03002e91daacc8e3597d650a4f1b2d21a39e"
    },
    {
      "status": "0x1",
      "cumulativeGasUsed": "0x6b086",
      "logs": [
        {
          "address": "0xbf8f03002e91daacc8e3597d650a4f1b2d21a39e",
          "topics": [
            "0xa15b89ddfd4f8f39b42c00d0e35440aa574da8d20d9e1d886e42edf16ce9ad4c",
            "0x000000000000000000000000026f252016a7c47cdef1f05a3fc9e20c92a49c37"
          ],
          "data": "0x0000000000000000000000000000000000000000000000000000000000000001",
          "blockHash": "0x5293668f156ae9f5ac5a8a335fb180214a330537b47c06b5debbc0796312ac7a",
          "blockNumber": "0x1a517ae",
          "blockTimestamp": "0x69ebe812",
          "transactionHash": "0x3b4c202a6bc7f2751e2dfd3f3a0283b2d5cbc7bd380142c70d2bcfee1a14fc86",
          "transactionIndex": "0x1",
          "logIndex": "0x1",
          "removed": false
        },
        {
          "address": "0xbf8f03002e91daacc8e3597d650a4f1b2d21a39e",
          "topics": [
            "0xa15b89ddfd4f8f39b42c00d0e35440aa574da8d20d9e1d886e42edf16ce9ad4c",
            "0x0000000000000000000000003c6b2e0b7421254846c53c118e24c65d59eae75e"
          ],
          "data": "0x0000000000000000000000000000000000000000000000000000000000000001",
          "blockHash": "0x5293668f156ae9f5ac5a8a335fb180214a330537b47c06b5debbc0796312ac7a",
          "blockNumber": "0x1a517ae",
          "blockTimestamp": "0x69ebe812",
          "transactionHash": "0x3b4c202a6bc7f2751e2dfd3f3a0283b2d5cbc7bd380142c70d2bcfee1a14fc86",
          "transactionIndex": "0x1",
          "logIndex": "0x2",
          "removed": false
        },
        {
          "address": "0xbf8f03002e91daacc8e3597d650a4f1b2d21a39e",
          "topics": [
            "0xa15b89ddfd4f8f39b42c00d0e35440aa574da8d20d9e1d886e42edf16ce9ad4c",
            "0x0000000000000000000000001e4d67c666c2ccf27a0af980fe6c8e0f05ac8949"
          ],
          "data": "0x0000000000000000000000000000000000000000000000000000000000000001",
          "blockHash": "0x5293668f156ae9f5ac5a8a335fb180214a330537b47c06b5debbc0796312ac7a",
          "blockNumber": "0x1a517ae",
          "blockTimestamp": "0x69ebe812",
          "transactionHash": "0x3b4c202a6bc7f2751e2dfd3f3a0283b2d5cbc7bd380142c70d2bcfee1a14fc86",
          "transactionIndex": "0x1",
          "logIndex": "0x3",
          "removed": false
        },
        {
          "address": "0xbf8f03002e91daacc8e3597d650a4f1b2d21a39e",
          "topics": [
            "0xa15b89ddfd4f8f39b42c00d0e35440aa574da8d20d9e1d886e42edf16ce9ad4c",
            "0x000000000000000000000000289f801765b99b5e6263853859fe302dbecab6d6"
          ],
          "data": "0x0000000000000000000000000000000000000000000000000000000000000001",
          "blockHash": "0x5293668f156ae9f5ac5a8a335fb180214a330537b47c06b5debbc0796312ac7a",
          "blockNumber": "0x1a517ae",
          "blockTimestamp": "0x69ebe812",
          "transactionHash": "0x3b4c202a6bc7f2751e2dfd3f3a0283b2d5cbc7bd380142c70d2bcfee1a14fc86",
          "transactionIndex": "0x1",
          "logIndex": "0x4",
          "removed": false
        },
        {
          "address": "0xbf8f03002e91daacc8e3597d650a4f1b2d21a39e",
          "topics": [
            "0xa15b89ddfd4f8f39b42c00d0e35440aa574da8d20d9e1d886e42edf16ce9ad4c",
            "0x000000000000000000000000234d354b39a4ca1274cb04972d3a9e03f1d8c4ff"
          ],
          "data": "0x0000000000000000000000000000000000000000000000000000000000000001",
          "blockHash": "0x5293668f156ae9f5ac5a8a335fb180214a330537b47c06b5debbc0796312ac7a",
          "blockNumber": "0x1a517ae",
          "blockTimestamp": "0x69ebe812",
          "transactionHash": "0x3b4c202a6bc7f2751e2dfd3f3a0283b2d5cbc7bd380142c70d2bcfee1a14fc86",
          "transactionIndex": "0x1",
          "logIndex": "0x5",
          "removed": false
        },
        {
          "address": "0xbf8f03002e91daacc8e3597d650a4f1b2d21a39e",
          "topics": [
            "0xa15b89ddfd4f8f39b42c00d0e35440aa574da8d20d9e1d886e42edf16ce9ad4c",
            "0x000000000000000000000000d505cce10571c1d07dd40d2d9001bef22cdf0d71"
          ],
          "data": "0x0000000000000000000000000000000000000000000000000000000000000001",
          "blockHash": "0x5293668f156ae9f5ac5a8a335fb180214a330537b47c06b5debbc0796312ac7a",
          "blockNumber": "0x1a517ae",
          "blockTimestamp": "0x69ebe812",
          "transactionHash": "0x3b4c202a6bc7f2751e2dfd3f3a0283b2d5cbc7bd380142c70d2bcfee1a14fc86",
          "transactionIndex": "0x1",
          "logIndex": "0x6",
          "removed": false
        },
        {
          "address": "0xbf8f03002e91daacc8e3597d650a4f1b2d21a39e",
          "topics": [
            "0xa15b89ddfd4f8f39b42c00d0e35440aa574da8d20d9e1d886e42edf16ce9ad4c",
            "0x000000000000000000000000091298d908a216cfca30729db2b194fe5f1d16be"
          ],
          "data": "0x0000000000000000000000000000000000000000000000000000000000000001",
          "blockHash": "0x5293668f156ae9f5ac5a8a335fb180214a330537b47c06b5debbc0796312ac7a",
          "blockNumber": "0x1a517ae",
          "blockTimestamp": "0x69ebe812",
          "transactionHash": "0x3b4c202a6bc7f2751e2dfd3f3a0283b2d5cbc7bd380142c70d2bcfee1a14fc86",
          "transactionIndex": "0x1",
          "logIndex": "0x7",
          "removed": false
        },
        {
          "address": "0xbf8f03002e91daacc8e3597d650a4f1b2d21a39e",
          "topics": [
            "0xa15b89ddfd4f8f39b42c00d0e35440aa574da8d20d9e1d886e42edf16ce9ad4c",
            "0x0000000000000000000000008f47d9d9d5a8202a5a37c4e41fbdd3146d88a579"
          ],
          "data": "0x0000000000000000000000000000000000000000000000000000000000000001",
          "blockHash": "0x5293668f156ae9f5ac5a8a335fb180214a330537b47c06b5debbc0796312ac7a",
          "blockNumber": "0x1a517ae",
          "blockTimestamp": "0x69ebe812",
          "transactionHash": "0x3b4c202a6bc7f2751e2dfd3f3a0283b2d5cbc7bd380142c70d2bcfee1a14fc86",
          "transactionIndex": "0x1",
          "logIndex": "0x8",
          "removed": false
        },
        {
          "address": "0xbf8f03002e91daacc8e3597d650a4f1b2d21a39e",
          "topics": [
            "0xa15b89ddfd4f8f39b42c00d0e35440aa574da8d20d9e1d886e42edf16ce9ad4c",
            "0x00000000000000000000000088927d35e37286805f343dc449b750f431e70a20"
          ],
          "data": "0x0000000000000000000000000000000000000000000000000000000000000001",
          "blockHash": "0x5293668f156ae9f5ac5a8a335fb180214a330537b47c06b5debbc0796312ac7a",
          "blockNumber": "0x1a517ae",
          "blockTimestamp": "0x69ebe812",
          "transactionHash": "0x3b4c202a6bc7f2751e2dfd3f3a0283b2d5cbc7bd380142c70d2bcfee1a14fc86",
          "transactionIndex": "0x1",
          "logIndex": "0x9",
          "removed": false
        },
        {
          "address": "0xbf8f03002e91daacc8e3597d650a4f1b2d21a39e",
          "topics": [
            "0xa15b89ddfd4f8f39b42c00d0e35440aa574da8d20d9e1d886e42edf16ce9ad4c",
            "0x000000000000000000000000000000000022d473030f116ddee9f6b43ac78ba3"
          ],
          "data": "0x0000000000000000000000000000000000000000000000000000000000000001",
          "blockHash": "0x5293668f156ae9f5ac5a8a335fb180214a330537b47c06b5debbc0796312ac7a",
          "blockNumber": "0x1a517ae",
          "blockTimestamp": "0x69ebe812",
          "transactionHash": "0x3b4c202a6bc7f2751e2dfd3f3a0283b2d5cbc7bd380142c70d2bcfee1a14fc86",
          "transactionIndex": "0x1",
          "logIndex": "0xa",
          "removed": false
        }
      ],
      "logsBloom": "0x000000000001000000000000000000084001001000000000000c0000000800000000000800000000000000000000000000000000800801000000000000000008000000000000000000004004000000000000000000010800000000000000004080000000000000020000080000020000000000000000000040010000000000000000000000000000004020800000000000000000040000000000000000000000000000000000000000000000000000000000000000000000000000000000000000009000001000010000000000000000200100000000000000000000000000000000000000000000002000000000000000000000000040000000000000000000",
      "type": "0x2",
      "transactionHash": "0x3b4c202a6bc7f2751e2dfd3f3a0283b2d5cbc7bd380142c70d2bcfee1a14fc86",
      "transactionIndex": "0x1",
      "blockHash": "0x5293668f156ae9f5ac5a8a335fb180214a330537b47c06b5debbc0796312ac7a",
      "blockNumber": "0x1a517ae",
      "gasUsed": "0x6b086",
      "effectiveGasPrice": "0x1c7f9bc7ff",
      "from": "0x77c4a1cd22005b67eb9cceae7e9577188d7bca82",
      "to": "0xbf8f03002e91daacc8e3597d650a4f1b2d21a39e",
      "contractAddress": null
    }
  ],
  "libraries": [],
  "pending": [],
  "returns": {
    "vault": {
      "internal_type": "contract GoldaVault",
      "value": "0xBF8F03002E91DAACC8E3597d650A4F1b2d21a39E"
    }
  },
  "timestamp": 1777068082288,
  "chain": 10143,
  "commit": "3671a8a"
}